2024/11/06 13:47:56.002111 8=FIX.4.4|9=282|35=A|34=1|49=test_order|52=20241106-13:47:56.000|56=test_target|96=c986f9e97370bfa6d15ec1a7667ba8c9aca9ccae7c9a047844fc4e71a8f0195b2fceb97dcfcbb997c3de93c897d716402be1bb17569b2c2eeee3d35db9daff0d|98=0|108=30|141=Y|554=4044a57206f7494b8692079e720aa911f3234e4d61079db28d36a405ae3630cb|10=003|
2024/11/06 13:47:56.252103 8=FIX.4.4|9=81|35=A|34=1|49=test_target|52=20241106-13:47:56.210|56=test_order|98=0|108=30|141=Y|10=125|
2024/11/06 13:48:13.861610 8=FIX.4.4|9=157|35=D|34=2|49=test_order|52=20241106-13:48:13.861|56=test_target|11=111111111|21=1|38=0.0190|40=2|44=60000.00000|54=2|55=BTC-USD|59=4|60=20241106-13:48:13.861|10=086|
2024/11/06 13:48:13.862631 8=FIX.4.4|9=157|35=D|34=3|49=test_order|52=20241106-13:48:13.862|56=test_target|11=222222222|21=1|38=0.0150|40=2|44=60000.00000|54=2|55=BTC-USD|59=4|60=20241106-13:48:13.862|10=078|
2024/11/06 13:48:14.012654 8=FIX.4.4|9=272|35=8|34=2|49=test_target|52=20241106-13:48:13.979|56=test_order|1=default|6=0.0000|11=111111111|14=0.00000000|17=11111112-4444-4444-4444-111111111111|31=0.0000|32=0.00000000|37=11111111-2222-3333-4444-555555555555|38=0.02|39=A|40=2|54=2|55=BTC-USD|58=|150=A|151=0.01900000|10=050|
2024/11/06 13:48:14.019403 8=FIX.4.4|9=272|35=8|34=3|49=test_target|52=20241106-13:48:13.987|56=test_order|1=default|6=0.0000|11=222222222|14=0.00000000|17=11111113-4444-4444-4444-111111111111|31=0.0000|32=0.00000000|37=22222222-3333-4444-5555-666666666666|38=0.02|39=A|40=2|54=2|55=BTC-USD|58=|150=A|151=0.01500000|10=228|
2024/11/06 13:48:14.033887 8=FIX.4.4|9=272|35=8|34=4|49=test_target|52=20241106-13:48:13.999|56=test_order|1=default|6=0.0000|11=111111111|14=0.00000000|17=11111114-4444-4444-4444-111111111111|31=0.0000|32=0.00000000|37=11111111-2222-3333-4444-555555555555|38=0.02|39=0|40=2|54=2|55=BTC-USD|58=|150=0|151=0.01900000|10=143|
2024/11/06 13:48:14.043048 8=FIX.4.4|9=280|35=8|34=5|49=test_target|52=20241106-13:48:14.009|56=test_order|1=default|6=73940.6300|11=111111111|14=0.01900000|17=11111115-4444-4444-4444-111111111111|31=73940.6300|32=0.01900000|37=11111111-2222-3333-4444-555555555555|38=0.02|39=2|40=2|54=2|55=BTC-USD|58=|150=F|151=0.00000000|10=097|
2024/11/06 13:48:14.052181 8=FIX.4.4|9=272|35=8|34=6|49=test_target|52=20241106-13:48:14.018|56=test_order|1=default|6=0.0000|11=222222222|14=0.00000000|17=11111116-4444-4444-4444-111111111111|31=0.0000|32=0.00000000|37=22222222-3333-4444-5555-666666666666|38=0.02|39=0|40=2|54=2|55=BTC-USD|58=|150=0|151=0.01500000|10=192|
2024/11/06 13:48:14.060262 8=FIX.4.4|9=280|35=8|34=7|49=test_target|52=20241106-13:48:14.027|56=test_order|1=default|6=73941.0700|11=222222222|14=0.01500000|17=11111117-4444-4444-4444-111111111111|31=73941.0700|32=0.01500000|37=22222222-3333-4444-5555-666666666666|38=0.02|39=2|40=2|54=2|55=BTC-USD|58=|150=F|151=0.00000000|10=135|
2024/11/06 13:48:18.238506 8=FIX.4.4|9=63|35=5|34=4|49=test_order|52=20241106-13:48:18.238|56=test_target|10=055|
2024/11/06 13:48:18.305700 8=FIX.4.4|9=63|35=5|34=8|49=test_target|52=20241106-13:48:18.270|56=test_order|10=055|